000010DAVID       IHAAS             A00397801011995PRES    18F24081963000183300000100000000422000
000020CHRISTINE   LTHOMPSON         B01347610102003MANAGER 18M02021978009425000000080000000330000
000030MICHAEL     AKWAN             C01473805042005MANAGER 20F11051971009825000000080000000306000
000050SALLY       BGEYER            E01678917081979MANAGER 16M15091955008017500000080040000321400
000060JOHN        FSTERN            D11642314092003MANAGER 16M07071975007225000000050000000258000
000070IRVING      DPULASKI          D21783130092005MANAGER 16F26052003009617000000070030000289300
000090EVA         WHENDERSON        E11549815082000MANAGER 16F15051971008975000000060000000238000
000100EILEEN      QSPENSER          E21097219062000MANAGER 14M18121980008615000000050020000209200
000110THEODORE    GLUCCHESSI        A00349016051988SALESREP19M05111959006650000000090000000372000
000120SEAN         O'CONNELL        A00216705121993CLERK   14M18101972004925000000060000000234000
000130DELORES     MQUINTANA         C01457828072001ANALYST 16F15091955007380000000050040000190400
000140HEATHER     ANICHOLLS         C01179315122006ANALYST 18F19011976006842000000060040000227400
000150BRUCE        ADAMSON          D11451012022002DESIGNER16M17051977005528000000050020000202200
000160ELIZABETH   RPIANKA           D11378211102006DESIGNER17F12041980006225000000040000000178000
000170MASATOSHI   JYOSHIMURA        D11289015091999DESIGNER16M05011981004468000000050040000197400
000180MARILYN     SSCOUTTEN         D11168207072003DESIGNER17F21021979005134000000050070000170700
000190JAMES       HWALKER           D11298626072004DESIGNER16M25061982005045000000040060000163600
000200DAVID        BROWN            D11450103032002DESIGNER16M29051971005774000000060070000221700
000210WILLIAM     TJONES            D11942211041998DESIGNER17M23022003006827000000040020000146200
000220JENNIFER    KLUTZ             D11672029081998DESIGNER18F19031978004984000000060070000238700
000230JAMES       JJEFFERSON        D21209421111996CLERK   14M30051980004218000000040040000177400
000240SALVATORE   MMARINO           D21378005122004CLERK   17M31032002004876000000060010000230100
000250DANIEL      SSMITH            D21961030101999CLERK   15M12111969004918000000040040000153400
000260SYBIL       PJOHNSON          D21895311092005CLERK   16F05101976004725000000030000000138000
000270MARIA       LPEREZ            D21900130092006CLERK   15F26052003003738000000050000000219000
000280ETHEL       RSCHNEIDER        E11899724031997OPERATOR17F28031976003625000000050000000210000
000290JOHN        RPARKER           E11450230052006OPERATOR12M09071985003534000000030070000122700
000300PHILIP      XSMITH            E11209519062002OPERATOR14M27101976003775000000040000000142000
000310MAUDE       FSETRIGHT         E11333212091994OPERATOR12F21041961003590000000030020000127200
000320RAMLAL      TMEHTA            E21999007071995FIELDREP16M11081962003995000000040060000159600
000330WING        VLEE              E21210323022006FIELDREP14M18071971004537000000050000000203000
000340JASON        GOUNOT           E21569805051977FIELDREP16M17051956004384000000050070000190700
200010DIAN        RHEMMINGER        A00397801011995SALESREP18F14081973004650000010000000000422000
200120GREG        JORLANDO          A00216705052002CLERK   14M18101972003925000000060000000234000
200140KIM          NATZ             C01179315122006ANALYST 18F19011976006842000000060040000227400
200170KIYOSHI     NYAMAMOTO         D11289015092005DESIGNER16M05011981006468000000050040000197400
200220REBA         JOHN             D11672029082005DESIGNER18F19031978006984000000060070000238700
200240ROBERT      KMONTEVERDE       D21378005122004CLERK   17M31031984003776000000060010000230100
200280EILEEN      RSCHWARTZ         E11899724031997OPERATOR17F28031966004625000000050000000210000
200310MICHELLE    FSPRINGER         E11333212091994OPERATOR12F21041961003590000000030020000127200
200330HELENA       WONG             E21210323022006FIELDREP14F18071971003537000000050000000203000
200340ROY         RALONZO           E21569805071997FIELDREP16M17051956003184000000050070000190700
100501DAN         PANDERSON         A00554109061992Analyst 16M01071974002760000000040020000192200
